:020000022000DC
:106000000000042061090A00A1090A00D1180A0051
:10601000A5090A00A7090A00A9090A000000000052
:1060200000000000000000000000000005080A0059
:10603000AD090A000000000025080A00B1090A00A5
:10604000990B0A00B3090A000DE6090075D2090090
:10605000B3090A00B3090A0021E80900B3090A00DC
:10606000B3090A00B3090A00B3090A00B3090A0018
:10607000B3090A00B3090A00B3090A00B3090A0008
:10608000B3090A0095050A00B3090A00B3090A001A
:10609000B3090A00B3090A00DDD80900B3090A00F0
:1060A000B3090A00B3090A00B3090A00B3090A00D8
:1060B000B3090A00B3090A00000000000000000054
:1060C000B3090A00B3090A00B3090A003D100A0027
:1060D000B3090A00B3090A00B3090A0015CE090082
:1060E00019E60900B3090A00B3090A00000000001C
:1060F00000000000B3090A00000000006D100A0053
:10610000000000000000000000000000000000008F
:10611000000000000000000000000000000000007F
:10612000000000000000000000000000000000006F
:10613000000000000000000000000000000000005F
:10614000000000000000000000000000000000004F
:10615000000000000000000000000000000000003F
:10616000000000000000000000000000000000002F
:10617000000000000000000000000000000000001F
:10618000000000000000000000000000000000000F
:1061900000000000000000000000000000000000FF
:1061A00000000000000000000000000000000000EF
:1061B00000000000000000000000000000000000DF
:1061C00000000000000000000000000000000000CF
:1061D00000000000000000000000000000000000BF
:1061E00000000000000000000000000000000000AF
:1061F000000000000000000000000000000000009F
:1062000010B5054C237833B9044B13B10448AFF3F0
:1062100000800123237010BDD4490020000000003D
:10622000B4090D0008B5034B1BB103490348AFF394
:10623000008008BD00000000D8490020B4090D000E
:10624000A3F5803A704700BF174B002B08BF134BD4
:106250009D46FFF7F5FF00218B460F461348144A71
:10626000121A85F063FD0E4B002B00D098470D4BA2
:10627000002B00D098470020002104000D000D489D
:10628000002802D00C48AFF3008085F01BFC2000F2
:1062900029007AF0A7FB85F02DF900BF0000080067
:1062A000000000000000000000000420D44900208D
:1062B00044B9012000000000000000007047704752
:1062C000817270477047402070472020704710202F
:1062D00070476FF0180070476FF0180070476FF04C
:1062E00018007047704770476FF018007047002023
:1062F0007047BBEE090A704784B004A800E90E009D
:106300006FF0180004B070476FF0180070476FF01E
:10631000180070470368D3F8E03018470368D3F8D3
:10632000DC3018474AB116290B466FF00800A8BFA9
:1063300016238342B8BF034613700931C9B220291E
:106340002CBF6FF00C000020704783684160194437
:10635000C160704700207047002070471C307047B4
:1063600001207047704724307047084A8B8992F8A3
:10637000300108B1422B08D0012B05D00A3B012B7C
:106380008CBF00200120704718467047F083002022
:10639000006A431E5842584170470020704747F238
:1063A000305070472038704790F83C00831E5842A8
:1063B000584170472038704790F83800831E584283
:1063C0005841704700207047007B7047002070479D
:1063D000006A431E58425841704700207047024BE4
:1063E00093F85801704700BFF0830020014B93F8E9
:1063F00049017047F0830020002070472038704723
:106400000020704701207047704700207047024B02
:1064100093F86201704700BFF08300204B6A032BA2
:1064200001BF034B1B68B3F8503003840020704752
:106430008C370120F2E7F1E71C30704700207047ED
:106440000068096803689B68184770470020704718
:10645000C0F88011704780ED5F0A704700207047D8
:106460000068096803689B68184700680968036842
:106470009B6818470068096803689B68184770475D
:106480007047022A06D0032A02D0012A00D10160F7
:10649000002070470B680360FAE7F2E7012A08BFA3
:1064A000016000207047F9E7F8E7F7E7F6E7F5E75E
:1064B000F4E7F3E7F2E7F1E7F0E7EFE7EEE7EDE720
:1064C000ECE7EBE7EAE7E9E7E8E7E7E7E6E7E5E750
:1064D000E4E7E3E7E2E7E1E7E0E7DFE7DEE7DDE780
:1064E000DCE7DBE7DAE7D9E7D8E7D7E7D6E7D5E7B0
:1064F000D4E7D3E7D2E7D1E7D0E7CFE7CEE7CDE7E0
:10650000CCE7CBE7CAE7C9E7C8E7C7E7C6E7C5E70F
:10651000C4E7C3E7C2E7022A06D0032A02D0012A51
:1065200000D10160002070470B680360FAE7F2E7D2
:10653000F1E7F0E7EFE7EEE7EDE7203870472038C6
:106540007047012070470020704701207047704756
:1065500070477047007B704775F03EBF75F03CBFD9
:1065600008461022002185F0E1BB10B50C2104463D
:106570007AF080FA204610BD10B5342104467AF036
:1065800079FA204610BD10B54468A318436011B1D4
:10659000204685F0A3FB012010BD10B54468A31868
:1065A0004360084611B1214685F098FB012010BDDB
:1065B000024B0348198877F050B900BFDE2D012047
:1065C000DC600120024B0348198877F046B900BF10
:1065D000DE2D0120DC60012070B505460C464CB173
:1065E000E1682846FFF7F8FFA668204678F07EFCB1
:1065F0003446F4E770BD70B505460C464CB1E16811
:106600002846FFF7F8FFA668204678F06FFC34466E
:10661000F4E770BD70B505460C464CB1E1682846FC
:10662000FFF7F8FFA668204678F060FC3446F4E7F0
:1066300070BD70B505460C464CB1E1682846FFF7C1
:10664000F8FFA668204678F051FC3446F4E770BDA8
:1066500010B50446006808B178F048FC204610BD2B
:1066600011B1083078F0A8BA704713B50A4C206809
:10667000403058F01BF92068002109F0D5F9074B8C
:1066800001221A7000230193054B01A9186878F0C4
:106690004FFE02B010BD00BFC037012048370120B7
:1066A000D4520020E1E7E0E710B5044675F054FE4F
:1066B000204610BD10B5046844B1201D75F04CFE95
:1066C00020461421BDE810407AF0D4B910BD2DE960
:1066D000F041044616460D4600F104082B1B402BE2
:1066E00056DD9F10CEB9BE1E761054F826303A46BD
:1066F000314620461CF01AF90EB1013EF5E72B1B7E
:10670000042B45DD55F8043D22682A602A1B9210AF
:10671000002120461CF00AF9F1E7DB10676854F805
:10672000230055F8041C2268874206F1FF360BD27D
:10673000884203D2206044F8232009E08F4205D22A
:10674000216045F8042C03E08F4219D2C4E900729D
:1067500047462B463A46D4F800E052F8040B704501
:1067600014D3191F0B4651F804C9E645FAD3BB42AE
:1067700009D8294632463846FFF7A9FF3D46ADE71E
:106780008842D7D2DCE742F804CC18601746E1E72C
:10679000BDE8F08107B500680B680168019301EB63
:1067A0000311C3680BB980F0CCF9036901AA043066
:1067B000984703B05DF804FBECE707B500680B6889
:1067C0000168019301EB0311C3680BB980F0B9F9BB
:1067D000036901AA0430984703B05DF804FB07B5CC
:1067E00000680B68026801930C2101FB0321C36858
:1067F0000BB980F0A6F9036901AA0430984703B0E9
:106800005DF804FBEBE707B500680B6802680193CD
:106810000C2101FB0321C3680BB980F092F90369D5
:1068200001AA0430984703B05DF804FBEBE7EAE700
:10683000E9E7034607B59A680191013A08469A606C
:106840007FF0A6FF019803B05DF804EB78F04EBB33
:10685000F0B501F1200C00254FF0000E51F8043B7B
:1068600005F001055E1B52F8043B6EEB4E07F41A6F
:1068700067F10005614540F8044BEFD105F00100D8
:10688000F0BD08B5D0E900031B1A6FF00040834249
:1068900002D1074880F030F9012B1A4638BF012297
:1068A0009B1804D2002BACBF18466FF0004008BD07
:1068B000AF000B0008B5D0E900031B1A9810094B74
:1068C00043430948834202D1084880F015F9012B5F
:1068D0001A4638BF01229A1802D2904228BF1046A9
:1068E00008BD00BFABAAAAAAAAAAAA0AAF000B00B9
:1068F000034610B41B681C68084611462CB1A44618
:106900009B685DF8044B0122604702205DF8044B50
:10691000704710B548B1046954B184680123A04799
:10692000002818BF6FF0020010BD6FF00A00FBE7EF
:106930006FF00400F8E720B1024B800143F001033F
:106940001847704770050B00A4DF7047A3DF70473E
:10695000B2DF7047B1DF7047B0DF704711DF7047BB
:106960003DDF70473CDF704763DF704762DF704791
:10697000A8DF704786DF704785DF704781DF70478B
:1069800046DF70478ADF70477ADF7047A0DF7047C5
:10699000007D7047407C7047007D7047B5DF7047D1
:1069A00090DF70478FDF7047AEDF7047ADDF704715
:1069B000ACDF7047ABDF7047AADF704775DF704709
:1069C00074DF704700231A46194678F0E9BB4FF090
:1069D000FF3178F051BD30B5294C05469DB0206D92
:1069E000FFF7F5FF94F84C30019525467BB125481B
:1069F00001AB02AA06A906F039FD044678B1286D5C
:106A0000FFF7E0FFB4FA84F040091DB030BD04F197
:106A10000C0006F0A6F904460028E8D0EFE79DF840
:106A20000C30222B16D0174802AA06A906F0E0FB6C
:106A300004460028E3D19DF80C30222BDFD1114809
:106A400006AA12A906F0BAF8041ED8DB0BD10E482C
:106A500058F0E4FD0B4804AA11A905F046FC0446D1
:106A60000028E0D0CBE71A9B0F931B9B10930023C9
:106A700004481A4606A906F03FFA0446BFE700BFDD
:106A8000084F0020144F0020C9000B0012DF704790
:106A900030B5044685B00A200D4678F0E0F90A4B7F
:106AA000009303210023CDE9011303932079236888
:106AB0006A4646F039FF00B220B92946684649F0D7
:106AC000B8FB00B205B030BD9C13012030B50446C0
:106AD00085B001200D4678F0C2F90A4B00930321DE
:106AE0000023CDE901130393207923686A4646F019
:106AF0001BFF00B220B92946684649F09AFB00B254
:106B000005B030BD5024012038B5437A04460D4607
:106B10000BB950F0CCFB20460322802150F060FBE3
:106B2000E27A20462A43812150F05AFB2573204601
:106B3000BDE8384050F06BBB38B5437A04460D468B
:106B40000BB950F0B4FB20460322802150F048FBE3
:106B5000227B20462A43812150F042FBE5722046E9
:106B6000BDE8384050F053BB38B515461A4650B111
:106B7000C368AB420AD344682B46A047002818BF1D
:106B80006FF0020038BD6FF00A00FBE76FF0040001
:106B9000F8E710B40446084611461A4623685C68B4
:106BA00024B1A4469B685DF8044B604702205DF861
:106BB000044B704713B5044600214BF022FE01231D
:106BC00001AA06212046FFF7E4FF50B99DF80430E2
:106BD00001AA60F34513062120468DF80430FFF723
:106BE00087FE02B010BD37B504460D4600214BF0BC
:106BF00008FE012301AA06212046FFF7CAFF50B96B
:106C00009DF8043001AA65F38613062120468DF80D
:106C10000430FFF76DFE03B030BD38B5437C044649
:106C20000D4673B1204647F04BFE227A657220462E
:106C30002A43A12147F0E8FD2046BDE8384047F04F
:106C4000F4BD034947F004FE0028EBD138BD00BF76
:106C5000A040012038B5437C04460D4673B1204660
:106C600047F02EFE627A257220462A43A12147F082
:106C7000CBFD2046BDE8384047F0D7BD024947F07C
:106C8000E7FD0028EBD138BDA04001201FB5046806
:106C90008DF80C10ACB103230021CDE9003103AB1A
:106CA00001221946204607F0B4FF9DF80D309DF8EB
:106CB0000C001B0243EA00439DF80E00184304B089
:106CC00010BD0323FF22CDE9003203AB0122194698
:106CD00040684DF029FCE8E71FB504688DF80C10FA
:106CE0008CB102230021CDE9003103AB012219460A
:106CF000204607F08EFF9DF80C009DF80D3043EA0A
:106D0000002004B010BD0223FF22CDE9003203AB06
:106D10000122194640684DF007FCECE708B5FFF783
:106D2000DBFF40BA80B208BD1FB504688DF80C10B7
:106D300064B100230122CDE9002303AB19462046AC
:106D400007F067FF9DF80C0004B010BD0122FF237F
:106D5000CDE9002303AB194640684DF0E5FBF1E7B0
:106D60001FB504688DF80D2064B10023CDE9003310
:106D70008DF80C100123022203A9204607F019FF09
:106D800004B010BD01F07F0100948DF80C10234673
:106D9000022203A940684DF0EBFBF1E70078C0F355
:106DA000C20300F007029B0043EA421343EA90103B
:106DB00070471FB544688DF80C10ACB10323002157
:106DC000CDE9003103AB01221946204607F021FF2F
:106DD0009DF80D309DF80C001B0243EA00439DF81E
:106DE0000E00184304B010BD0323FF22CDE900328A
:106DF00003AB0122194680684DF096FBE8E71FB50A
:106E000044688DF80C109CB102230021CDE90031BB
:106E100003AB01221946204607F0FBFE9DF80C301B
:106E20009DF80D0040EA032040BA80B204B010BDC6
:106E30000223FF22CDE9003203AB0122194680680C
:106E40004DF072FBEAE71FB544688DF80C1064B191
:106E500000230122CDE9002303AB1946204607F0A9
:106E6000D8FE9DF80C0004B010BD0122FF23CDE92F
:106E7000002303AB194680684DF056FBF1E71FB5C0
:106E800044688DF80D2064B10023CDE900338DF8FE
:106E90000C100123022203A9204607F08AFE04B049
:106EA00010BD01F07F0100948DF80C1023460222E2
:106EB00003A980684DF05CFBF1E7836903B11847D3
:106EC000184670470378642223F002030370406879
:106ED000B0FBF2F0B0FBF2F302FB1300C0B270475C
:106EE000037C0BB903707047836843600378C1600B
:106EF00043F003030370002303747047037819B150
:106F000043F004030370704703F0FB03FAE7704794
:106F10004BDF704733DF704732DF7047BFF34F8F6F
:106F20000549064BCA6802F4E0621343CB60BFF325
:106F30004F8F00BFFDE700BF00ED00E00400FA0541
:106F400008B177F0D3BF704710B5044619F016FAB0
:106F500008B12388838110BD425C0144487840EA2F
:106F6000022070470B4B10B51C6814F069F82368B9
:106F700001461B6820469847044640B11CF0F4FFC8
:106F800028B194F82D3013B104F12D0010BD024842
:106F9000FCE700BFC4910020CD000B00034B1A7921
:106FA000062A0CBF93F8980000207047908E0020AE
:106FB000064B187900F0FB03022B04D0A0F10B0361
:106FC0005842584170470120704700BF908E002002
:106FD000094B10B51C6864B1606814F013F838B13F
:106FE00094F8640194F86E3198422CBF002001207F
:106FF00010BD2046FCE700BF1CF0002010B5044681
:1070000000687FF031FC2060204610BD38B5044692
:1070100008200D4679F028FD2B6843602368036043
:10702000206038BD70B505460C464CB1E168284675
:10703000FFF7F8FFA668204677F058FF3446F4E7DC
:1070400070BD10B5044600687FF0E8FB2060204664
:1070500010BD836810B504462BB103220146984742
:107060000023C4E90233204610BD8B6873B5164671
:1070700004460D1D01225BB130681A69904234BF8D
:107080009868D8681D4634BF012200220346F2E703
:10709000019552B1CA68AA4204D1C4E9003520461C
:1070A00002B070BD01A8FFF7A9FF019A336811690A
:1070B00099424FF00003F0D3C4E90023EFE738B55D
:1070C00004460068844204D0056877F00FFF284624
:1070D000F8E738BD70B5046805460E46AC4207D0E7
:1070E000A068036831469B68984710B92468F5E7A3
:1070F000002070BD38B504460C200D4679F0B4FC74
:107100002B68836021467FF03CFBA3680133A360BA
:1071100038BD38B504460C200D4679F0A5FC2B6827
:10712000836021467FF02DFBA3680133A36038BD47
:10713000F8B50D460168044606468C420FD08A68B1
:107140002B680F689A4208D101F108039D4203D0D1
:107150002046FFF76EFB00E00E463946EDE7B442ED
:1071600005D031462046BDE8F840FFF762BBF8BDC8
:1071700010B50446FFF7A3FF0023C4E90044A36051
:1071800010BD70B5046805460E46AC4207D0A06835
:10719000036831469B68984710B92468F5E70020DA
:1071A00070BD08B5054B984201D97FF09FFC0C23B8
:1071B0005843BDE8084079F057BC00BFAAAAAA0A04
:1071C00008B177F093BE70478B6873B516460446D6
:1071D0000D1D01225BB130881A8A904234BF986835
:1071E000D8681D4634BF012200220346F2E701950C
:1071F00052B1CA68AA4204D1C4E90035204602B09F
:1072000070BD01A8FFF7FAFE019A3388118A9942EE
:107210004FF00003F0D3C4E90023EFE78B6873B5A8
:10722000164604460D1D01225BB130881A8A904231
:1072300034BF9868D8681D4634BF01220022034637
:10724000F2E7019552B1CA68AA4204D1C4E90035F7
:10725000204602B070BD01A8FFF7D0FE019A338826
:10726000118A99424FF00003F0D3C4E90023EFE7FD
:1072700070B505460C464CB1E1682846FFF7F8FFAB
:10728000A668204677F032FE3446F4E770BD10B5AC
:107290000C4650B16DF09CFA38B1043050E8003F14
:1072A000234440E80032002AF8D110BD10B501385F
:1072B000029C0F2800F28480DFE800F05E8236280E
:1072C0001A1458084A6D7073797D8044DFED427A54
:1072D0009FED427A002908BFF0EE477AC2ED007AAE
:1072E000052261E0DFED3E7A9FED3E7A0029F2E76C
:1072F000DFED3B7A9FED3B7A002908BFF0EE477A3D
:10730000C2ED007A05222270082242E0DFED347AD5
:107310009FED347A002908BFF0EE477AC2ED007A7B
:1073200005222270092234E0DFED2D7A9FED2D7ABF
:10733000002908BFF0EE477AC2ED007A05222270DC
:107340000A2226E0DFED247A9FED247A0029E2E785
:10735000DFED217A9FED217A002908BFF0EE477A10
:10736000C2ED007A082222700B2212E0DFED1E7AB5
:107370009FED1E7A0029F0E7DFED1B7A9FED1B7A67
:10738000002908BFF0EE477AC2ED007A0822227089
:107390000C221A7010BD16491160C1E71449116022
:1073A000CCE714491160062222700722F1E7114947
:1073B00011600622A7E71049116091E70E49F7E72F
:1073C000DFED077A9FED077A002908BFF0EE477AD4
:1073D000C2ED007A0522C6E70020CB440000FA4344
:1073E00000204B4400007A430020CB430000FA42C7
:1073F0000000FA4200007A429A9979411FB50023B1
:10740000039300238DF80B308DF80A300DF10A0339
:10741000009303AA0DF10B03FFF748FF9DED030A4C
:1074200005B05DF804FBF8B50D4601680446064654
:107430008C420FD08A682B680F689A4208D101F1FC
:1074400008039D4203D02046FFF7F3F900E00E4603
:107450003946EDE7B44205D031462046BDE8F84054
:10746000FFF7E7B9F8BD2DE9F047D0E90487436A93
:10747000D0E902A904463D1D1E1DAE4204D955F8AF
:10748000040B77F033FDF8E7C4E906A9C4E90887DF
:10749000BDE8F0872DE9F047D0E90487436AD0E9D9
:1074A00002A904463D1D1E1DAE4204D955F8040B29
:1074B00077F01CFDF8E7C4E906A9C4E90887BDE830
:1074C000F087036870B5044663B1436A45691E1DC1
:1074D000AE4204D955F8040B77F008FDF8E72068B0
:1074E00077F004FD204670BD036870B5044663B1B3
:1074F000436A45691E1DAE4204D955F8040B77F066
:10750000F5FCF8E7206877F0F1FC204670BD70B517
:1075100005460C464CB1E1682846FFF7F8FFA6681F
:10752000204677F0E3FC3446F4E770BDB0F1005F2D
:1075300008B501D37FF0DAFABDE80840800079F0A1
:1075400093BA08B177F0D2BC70470346BFF35B8FA4
:1075500053E8000F421C43E800210029F8D1BFF393
:107560005B8F7047026962B1836850F82310013362
:1075700003F0010348BF5B42013A836002610846A1
:1075800070471146FBE7826A10B582B1036A50F872
:1075900023400133594201F0070103F0070302F1D0
:1075A000FF3258BF4B4203628262204610BD144630
:1075B000FBE7026962B1836850F82310013303F0DE
:1075C000010348BF5B42013A83600261084670478D
:1075D0001146FBE7826C10B582B1036C50F8234072
:1075E0000133594201F00F0103F00F0302F1FF32A2
:1075F00058BF4B4203648264204610BD1446FBE72B
:107600000146014818F0E0BE00980020884270B59D
:1076100005460E4625D00C1AA210B2FA82F2C2F12B
:107620001F025200FFF753F8402C14DD05F140040F
:10763000214628461BF058F923469E4211D019686E
:107640001A4652F8040C814202D242F80409F8E7C3
:1076500011600433F1E731462846BDE870401BF065
:1076600043B970BD8B6873B5164604460D1D0122E3
:107670005BB130681A69904234BF9868D8681D467B
:1076800034BF012200220346F2E7019552B1CA68D5
:10769000AA4204D1C4E90035204602B070BD01A859
:1076A000FFF7ACFC019A3368116999424FF000036F
:1076B000F0D3C4E90023EFE78B6873B516460446A0
:1076C0000D1D01225BB130681A69904234BF986881
:1076D000D8681D4634BF012200220346F2E7019517
:1076E00052B1CA68AA4204D1C4E90035204602B0AA
:1076F00070BD01A8FFF782FC019A336811699942B5
:107700004FF00003F0D3C4E90023EFE78B6873B5B3
:10771000164604460D1D01225BB130681A6990427D
:1077200034BF9868D8681D4634BF01220022034642
:10773000F2E7019552B1CA68AA4204D1C4E9003502
:10774000204602B070BD01A8FFF758FC019A3368CB
:10775000116999424FF00003F0D3C4E90023EFE729
:107760008B6873B5164604460D1D01225BB1306867
:107770001A69904234BF9868D8681D4634BF012208
:1077800000220346F2E7019552B1CA68AA4204D129
:10779000C4E90035204602B070BD01A8FFF72EFCF9
:1077A000019A3368116999424FF00003F0D3C4E99C
:1077B0000023EFE72DE9F347CB68DFF864900193EE
:1077C0000E1D07460C4635464FF0FF38DDF804A085
:1077D000564510D0DAF81010D9F80430994206D086
:1077E000384613F081F9804584BF5546804601A88C
:1077F000FFF727FCEAE7AE4210D001A80195FFF79A
:1078000020FC314628467FF08DF877F06FFB6369E6
:10781000013B6361012002B0BDE8F0870020FAE778
:10782000708700202DE9F347CB68DFF8649001935F
:107830000E1D07460C4635464FF0FF38DDF804A014
:10784000564510D0DAF81010D9F80430994206D015
:10785000384613F049F9804584BF5546804601A853
:10786000FFF7EFFBEAE7AE4210D001A80195FFF762
:10787000E8FB314628467FF055F877F037FB63691F
:10788000013B6361012002B0BDE8F0870020FAE708
:10789000708700202DE9F347CB68DFF864900193EF
:1078A0000E1D07460C4635464FF0FF38DDF804A0A4
:1078B000564510D0DAF81010D9F80430994206D0A5
:1078C000384613F011F9804584BF5546804601A81B
:1078D000FFF7B7FBEAE7AE4210D001A80195FFF72A
:1078E000B0FB314628467FF01DF877F0FFFA636958
:1078F000013B6361012002B0BDE8F0870020FAE798
:10790000708700202DE9F347CB68DFF8649001937E
:107910000E1D07460C4635464FF0FF38DDF804A033
:10792000564510D0DAF81010D9F80430994206D034
:10793000384613F0D9F8804584BF5546804601A8E3
:10794000FFF77FFBEAE7AE4210D001A80195FFF7F1
:1079500078FB314628467EF0E5FF77F0C7FA636989
:10796000013B6361012002B0BDE8F0870020FAE727
:107970007087002030B5031D826818463AB115693A
:107980000C68A5422ABF1046D2689268F6E7834287
:1079900004D009680269914238BF184630BD30B53D
:1079A000031D826818463AB115690C68A5422ABFC2
:1079B0001046D2689268F6E7834204D009680269EB
:1079C000914238BF184630BD30B5031D8268184655
:1079D0003AB115690C68A5422ABF1046D268926870
:1079E000F6E7834204D009680269914238BF18461D
:1079F00030BD30B5031D826818463AB115690C6870
:107A0000A5422ABF1046D2689268F6E7834204D0A6
:107A100009680269914238BF184630BD37B54B69D5
:107A20000192272B05460C460AD901A92046FFF7EB
:107A3000E0FF231D834203D121462846FFF762FF62
:107A400003B030BD10B581680446FEF7C5FD0023C4
:107A5000221DC4E90322A360636110BD10B58168D3
:107A60000446FEF7C8FD0023221DC4E90322A360DB
:107A7000636110BD10B581680446FEF7CBFD00239D
:107A8000221DC4E90322A360636110BD10B58168A3
:107A90000446FEF7CEFD0023221DC4E90322A360A5
:107AA000636110BD38B50568044628467EF0C9FEFE
:107AB0002060284638BDF7B58368061D0446354664
:107AC000EBB11A690F68BA4204D2DA682B461D4638
:107AD0001346F5E79A68FAD8D86842B111698F421F
:107AE0008ABFD16891681A4613460A46F5E738B14D
:107AF0000269974236BF0546C0688068F7E72B46A3
:107B0000E268676901939A4208D1AE4206D12046E5
:107B1000FFF7BCFF6069381A03B0F0BD019BAB42B0
:107B2000F8D001A8FFF7BEFF31467EF0FBFE77F0EC
:107B3000DDF96369013B6361F0E708B177F0D6B91D
:107B4000704770B505460C464CB1E1682846FFF712
:107B5000F8FFA668204677F0C9F93446F4E770BD0F
:107B600042680B4604318A4210B5044604D01846D8
:107B7000521A84F0C1F803466268043A62601846FB
:107B800010BD814210B51346A1EB000405D001469B
:107B90002246184684F0B0F80346181910BD38B5CF
:107BA0000346D3E90035ED1A6FF06043AC10A3EB48
:107BB000A5058D42104601D27EF09EFFA14238BF3E
:107BC0002146601803D2984228BF184638BD18468F
:107BD000FCE708B177F08AB9704710B50446006831
:107BE000FFF7F7FF204610BD70B5B0F868100446E7
:107BF000D4EDC36A90F80403B4F80A3388B011B125
:107C000099427AD80B460F2B7ADD42F210728240ED
:107C100007EE902AB8EE677AF2EE047A66EEA76A6B
:107C2000A3F11002C7EE267A92B2FCEEE77A17EEC5
:107C3000901A4A4303FB01139B1A03F57A735B08FE
:107C400001EBC1018B4238BF0B46D4F82C1301F570
:107C50007E75954204F52A703DD8521A7D25DB00C9
:107C6000A2F57A72B3FBF5F616F07F4F4FEAC20227
:107C7000B2FBF5F53CD17C2B3AD915F07F433AD1D4
:107C80007C2A38D96FF07F42079340F27623CDE902
:107C90000423D4F8A8320221D3F8D030069104AAE4
:107CA000984718BB330C8DF80830330A8DF809302B
:107CB0002B0C8DF80B300123CDE900336DBAD4F8CD
:107CC00000038DF80A60062302AA9421ADF80C5037
:107CD0003AF032FA0AE0D4F8A83200220092DC69C5
:107CE00040F2762202236FF07F41A04708B070BDBA
:107CF0006FF43170FAE70448F8E76FF01100F5E728
:107D000000221346A1E700BF3CFDFFFF08281BD05F
:107D10000A281CD010281DD015281ED01F281FD0BF
:107D20002A2820D03E2821D0C82822D0B0F5C87FEC
:107D300022D0B0F5487F22D0B0F5C86F22D007EE30
:107D4000900AB8EE670A70479FED100A70479FEDE2
:107D5000100A70479FED0F0A70479FED0F0A70479A
:107D60009FED0E0A70479FED0E0A70479FED0D0ABA
:107D700070479FED0D0A70479FED0C0A70479FED0D
:107D80000C0A70479FED0B0A704700BF9A99F940A3
:107D9000666626419A9979416666A6410000FA41D5
:107DA000CDCC264200007A4200204B430020CB433A
:107DB00000204B440020CB4410B103685B68184797
:107DC000704710B103681B691847704710B5044627
:107DD000006808B1FFF7F5FF204610BD10B1036839
:107DE0001B691847704710B103685B6818477047F4
:107DF000036801600BB11846F5E7704710B10368DE
:107E00005B681847704770B505460C464CB1E16891
:107E10002846FFF7F8FFA668204677F067F8344653
:107E2000F4E770BD70B5046805460E46AC4207D055
:107E3000A068036831469B68984710B92468F5E745
:107E4000002070BD2DE9F84FD0E90087A7EB0804AA
:107E5000A310234C5C43234B9C4206468946934621
:107E600002D121487EF048FE012C224638BF012273
:107E7000A418A1EB080531D244B19C4228BF1C468E
:107E80000C20604378F0F0FD824600E0A2469BE8BB
:107E900007000AEB0503002D83E8070004DD2A46EE
:107EA0004146504683F028FFA7EB09070C35002F09
:107EB000554404DD3A464946284683F00FFF3D44C9
:107EC000B8F1000F02D0404677F010F80C2000FB0C
:107ED00004A4C6E900A5B460BDE8F88F1C46CFE74E
:107EE000ABAAAAAAAAAAAA0AAF000B002DE9F84FCA
:107EF000064689469346FEF7C4FCD6E900A8071E4D
:107F0000A9EB0A0428D001DA7EF0F0FD78F0ACFD90
:107F100005469BF800302B55002C04DD22465146C7
:107F2000284683F0E9FEA8EB09080134B8F1000FF8
:107F30002C4404DD42464946204683F0CFFE4444AB
:107F4000BAF1000F02D0504676F0D0FFC6E90054D7
:107F50003D44B560BDE8F88F3D46DAE72DE9F041D4
:107F600006468846154617460446444509D021462C
:107F700038467FF03AF820467EF048FF183418372C
:107F8000F3E7A01BC4080448444324F060441820CD
:107F900000FB0450BDE8F081ABAAAA0A10B50C1A88
:107FA000002C134605DD01462246184683F0A4FE48
:107FB0000346181910BDB0F1005F08B501D37EF07B
:107FC00095FDBDE80840800078F04EBD08B176F020
:107FD0008DBF7047B1F1005FF8B504460E4602D37D
:107FE00010487EF089FD026883689B1AB1EBA30FED
:107FF00014D94768BF1A91B10846FFF7DCFF054660
:108000002A46D4E90001FFF7C9FF2068FFF7DEFF29
:108010002F44256005EB86056760A560F8BD0D4619
:10802000EEE700BFD1000B0008B176F05FBF7047EC
:108030002DE9F843D0E901439C420746894607D021
:108040000B6844F8043B446078680438BDE8F88362
:10805000D0F800806FF06042A4EB0804B2EBA40FEC
:108060004FEAA40302D116487EF046FD012B1D46BF
:1080700038BF0125ED1821D23DB1954228BF1546E4
:10808000A80078F0F1FC064600E02E46D9F8003052
:108090003351002C04DD22464146304683F02CFE4D
:1080A00004343444B8F1000F02D0404676F01EFF8D
:1080B00006EB8505C7E90064BD60C5E71546DFE747
:1080C000AF000B0038B50346D3E90035ED1A6FF069
:1080D0006043AC10A3EBA5058D42104601D27EF0A3
:1080E0000BFDA14238BF2146601803D2984228BF39
:1080F000184638BD1846FCE72DE9F84F05460F46EF
:1081000091460121134AFFF7DDFFD5E9008A0646B3
:10811000A7EB080BD8B1FFF74EFF0446D9F80030A3
:1081200044F80B30224639464046FFF737FF5146A8
:10813000021D3846FFF732FF07464046FFF746FF6D
:10814000C5E9004704EB8604AC60BDE8F88F04463F
:10815000E4E700BFAF000B00D0E90032934218BF44
:108160004360704710B504460068FFF72FFF2046B4
:1081700010BD30B50D68836885B0D0E90042056058
:108180004D68456003938D6885600023C1E9003325
:108190008B6001A8CDE90142FFF7E4FF05B030BDD7
:1081A000D0E900239A4209D1C3681A1F53F8043C4E
:1081B000436003F5FC73C2608360036003681C3B8B
:1081C0000360704713B50B460246D0E900016C46C8
:1081D00084E8030093E8030082E8030094E80300C6
:1081E00083E803009868916890609960D168D868C6
:1081F000D060D96002B010BD10B50378DB0704462B
:1082000004D576F021FEE368C01A10BD4FF0FF30B0
:10821000FBE72DE9F0431546074687B01420894651
:1082200078F022FC2B6807F1040819780174002308
:10823000C845064600F11002437483744C460CD1C5
:108240007B691BB13D692B7C8B4223D3394604A843
:1082500022F0C3FEDDE9044518E099F81000019210
:1082600088422DD9FB68CDF80C904B4526D003A849
:10827000FEF7C4FE0368019A197C337C9942E5D26B
:10828000039DEB68002B0CBF00244D46002D37D01A
:10829000002C33D1454531D0307C2B7C98422CBF0B
:1082A0000020012043462A4631467EF0DFFA7B69F2
:1082B00001337B61304607B0BDE8F0834D46E5E70A
:1082C0001ED23969CDF80C9049450DD003A8FEF7B0
:1082D000B8FE0368317C1B7C019A994207D2D9F819
:1082E0000C300BB1039B1C4625461C46CEE7394695
:1082F00004A822F072FEDDE90434F5E70120D1E79D
:10830000304676F0F3FD2046D5E710B503463BB185
:108310001C7C107884422ABF1946DB689B68F6E70C
:10832000084610BDD0E9002310B5D31A114C9B109C
:1083300004FB0313002B18DB012B04DCCC2303FB11
:108340000121016010BD5A10C16801EB820451F88F
:108350002210C460A3EB4203CC2201F5CC7402FBD3
:108360000313416084600360ECE7DA436FEA520272
:10837000EAE700BFFBFAFAFACA68C3689B1A9B10C7
:108380005A1ED0E900301B1A05489B10434303EBEB
:1083900042038A680968521A921000FB0230704743
:1083A000FBFAFAFA036870B5044663B1436A45699B
:1083B0001E1DAE4204D955F8040B76F097FDF8E780
:1083C000206876F093FD204670BD03688268CC3348
:1083D0009342036008D1C3681A1D5B68C26003F54D
:1083E000CC72436082600360704708B5064B074A51
:1083F0001868074900F6147073F05CFBBDE808408C
:108400000E200EF0B7B800BFB43A0120E1000B0017
:10841000FA000B0070B5046805460E46AC4207D062
:10842000A068036831469B68984710B92468F5E74F
:10843000002070BD10B50B4904460B48FFF7EAFF5A
:1084400068B123681D2B0BD801332360074B084A02
:108450001868084900F6147073F02CFB012010BD59
:108460000020FCE763360C00F8240120B43A012018
:1084700000010B001D010B0070B5046805460E4697
:10848000AC4207D0A068036831469B68984710B992
:108490002468F5E7002070BD10B5D0E90043144A08
:1084A000E31A9B1002FB0312002A1BDB112A04DCD7
:1084B0001C2303FB0141016010BD122392FBF3F367
:1084C000C16801EB830451F82310C46001F5FC740A
:1084D0008460122404FB13231C2202FB031341605B
:1084E0000360E9E7D3431221B3FBF1F3DB43E7E792
:1084F000B76DDBB6CA68C3689B1AD0E90020121AB0
:1085000007489B109210424310B5013B122404FB14
:1085100003238A680968521A921000FB023010BDCA
:10852000B76DDBB62DE9F04704460F4600F10801B0
:108530001830FFF7DFFF3C4B984202D13B487EF0FA
:10854000DBFA626A20686368111AA3EBA1010129B2
:1085500025D86169A2EB01084FEAA806B51CB3EB68
:10856000450F3CD95D1B6D0800EB8505131DA94225
:10857000A3EB01022CD9994202D0284683F0BCFB20
:108580002B68E36003F5FC73236105EB080363626A
:1085900055F80830E36103F5FC73656123624FF41D
:1085A000FC70656A78F060FA68603D460FCDA66998
:1085B0000FC695E80700636A86E807001A1D5B6826
:1085C000626203F5FC72E3612262A361BDE8F08799
:1085D0009942D5D008F10400801A2844CEE703F16F
:1085E0000209012B2CBF994409F10109B9F1005F7F
:1085F00001D37EF07BFA4FEA890078F035FA626A9F
:108600006169A9EB050504326D089142824600EBD1
:10861000850503D0521A284683F06EFB206876F059
:1086200065FCC4E900A9ABE72449920423010B00CF
:1086300073B5044616460D4619B912B10D487EF0C1
:1086400058FA731B0F2B019307D9002201A920466A
:108650007EF0BAFB019B2060A36032462946206869
:108660007EF047FC019B226863600021D15402B078
:1086700070BD00BF53010B0010B500F108030446A4
:1086800003600A444FF00003FFF7D2FF204610BDFD
:10869000FFF7CEBF036870B5044663B1436A45690E
:1086A0001E1DAE4204D955F8040B76F01FFCF8E706
:1086B000206876F01BFC204670BD036882681C337E
:1086C0009342036008D1C3681A1D5B68C26003F55A
:1086D000FC72436082600360704744DF704743DF91
:1086E000704742DF7047064B1868043B1B68082B35
:1086F00004D103288CBF0020012070470020704760
:1087000034010010034B1B68DB0700D500BE0020BE
:10871000704700BFF0ED00E010B5002204460846A7
:10872000042176F017FD00232060636028B9044B14
:10873000044A0548162156F057FF204610BD00BFD9
:108740004E3E0B008CAC0B007D010B0037B5044690
:108750001420019178F088F9019905461BF0D4FEA8
:10876000256003B030BD022A70B5054607D0032A44
:1087700013D0012A01D10B680360002070BD0C6882
:10878000142078F071F92146064651F8043B40F870
:10879000043B1AF0E7F92E60EFE7FDF78BFFECE7FB
:1087A000E1E7022A70B5054607D0032A13D0012A53
:1087B00001D10B680360002070BD0C68142078F0B4
:1087C00053F92146064651F8043B40F8043B1AF0A1
:1087D000C9F92E60EFE7FDF76DFFECE7022A70B5EF
:1087E000054607D0032A13D0012A01D10B68036084
:1087F000002070BD0C68142078F036F9214606463A
:1088000051F8043B40F8043B1AF0ACF92E60EFE756
:10881000FDF750FFECE7E1E7022A70B5054607D007
:10882000032A13D0012A01D10B680360002070BD18
:108830000C68142078F018F92146064651F8043BDC
:1088400040F8043B1AF08EF92E60EFE7FDF732FF97
:10885000ECE7E1E7E0E7DFE71FB5044668461AF01A
:1088600081F921466846FFF7ADFC684673F074FD58
:10887000204604B010BD7FB56E460C460546014645
:1088800030460CF0FDF994E80F0085E80F0096E8FB
:108890000F0084E80F0004B070BD7FB56E460C4633
:1088A0000546014630461AF06CF994E80F0085E859
:1088B0000F0096E80F0084E80F0004B070BD00BF01
:1088C000014B93F858017047F0830020014B93F857
:1088D00049017047F0830020014B93F86201704713
:1088E000F08300202DE9F041DFF8C883C64BC74D67
:1088F000C74E404694B0442240F80C3B002100246F
:1089000083F014FAC34BC8F8083008F1540188F812
:108910000440012076F0C8FCBF4BC8F85000C8F8EE
:108920000030BE4ABE4940467DF026FFBD48BB4AE6
:10893000BD49C0F884404FF40053A0F88030BB4BD1
:10894000C0F88830A0F89C407DF016FFB84B082294
:10895000DC60C3E901441A701C82B64BB64A1C7035
:108960005C70B64B01271A60B54A1F71D2F8B4107B
:108970001973D2F8AC109973D2F8B0105973DC7334
:108980001C829C60AF4BB0491C711960516F197308
:10899000D1689973926F5A739C60DC731C8219239F
:1089A000C5E90055AC60AC812B614FF47A732B6242
:1089B000AE61C5F82880C5E90C44AC73AC82EC61AB
:1089C00085F82C408022214605F17C0085F838404E
:1089D00085F8784083F0AAF98822214605F1FC0049
:1089E00083F0A4F98D4A994928467DF0C5FE984840
:1089F0008A4A98498460C0E900007DF0BDFE96482F
:108A0000864A94498460C0E900007DF0B5FE934831
:108A1000824A90498460C0E900007DF0ADFE904834
:108A200072F0A6FA7D4A8F498D487DF0A5FE4FF47D
:108A3000A47078F019F806F124030546202240F8C6
:108A4000043B214683F072F96C621022214605F145
:108A5000280083F06BF92122214605F1380083F0CC
:108A600065F92022214605F1590083F05FF92022A3
:108A7000214605F1790083F059F920222146C5F8F5
:108A80009C4005F1A00083F051F985F8C04005F144
:108A9000C40072F06DFA2022214605F1C80083F06F
:108AA00045F92022214605F1E80083F03FF9202214
:108AB000214605F5847083F039F92022214605F519
:108AC000947083F033F906F170032B60664B6748AE
:108AD0001D6006F1BC08664B10930EA9CDF83880D6
:108AE0008DF83E40ADF83C4011944CF03FF94B4AB4
:108AF00060495E48604D7DF03FFE604B60481093DA
:108B00000EA9CDF838808DF83E40ADF83C40119468
:108B100003F0DAF8414A5B4959487DF02DFE5A4B83
:108B20005A4810930EA9CDF838808DF83E40ADF824
:108B30003C40119403F0C8F8384A524953487DF03C
:108B40001BFE534B534810930EA9CDF838808DF877
:108B50003E40ADF83C40119403F0B6F82F4A494925
:108B60004C487DF009FE4C4B4C4810930EA9CDF8B3
:108B700038808DF83E40ADF83C40119403F0A4F8E5
:108B8000264A404945487DF0F7FD41F60A030EA903
:108B90002846CDF83880ADF83C30CDE910448DF84A
:108BA0003E704CF0E3F8284606F1CC0340F8183B41
:108BB0002422214683F0BAF8394BEB611523C5E92D
:108BC0000F4485F83D30374BEB62052385F8413083
:108BD000354B2B63132385F8423085F844402846F3
:108BE000324D0E4A32497DF0C7FD41F60F030EA902
:108BF0002846CDF83880ADF83C30CDE910448DF8EA
:108C00003E704CF0B3F857E068390B00100D0120AE
:108C1000A8010B006440002078390B0000400020C0
:108C2000F9DF0200C8910020A1F9030080EE3600B0
:108C3000FC130120C824012000F00240D0240120B0
:108C40004CF80C00E42401200030024023A604006C
:108C5000F824012061F407000425012010250120DB
:108C60003025012063AF090034250120F4270120BD
:108C700016F80C00CB0308007C28012027F80C0014
:108C800038250120EDBC020037F80C003429012002
:108C900005F80C008C2B0120F4F70C009025012026
:108CA00068F90C00F0FF0A00F6FF0A00C428012052
:108CB000C9030800084F0020284606F1E00340F8E9
:108CC000183B0EA942F61923ADF83C30CDF8388098
:108CD000CDE910448DF83E7002F0F6FF2846BC4DF9
:108CE000BC4ABD497DF048FDBC4BCDF838800EA98B
:108CF000284610938DF83E40ADF83C4011944CF05E
:108D000035F8284606F1F40340F8183B0EA9B44B99
:108D1000CDF8388010938DF83E40ADF83C4011946A
:108D200002F0D2FF06F584732B60AA4AAD492846AB
:108D30007DF022FD234622462146AB48009474F084
:108D400047FFAA48AA4D72F013F9A24AA949A748B9
:108D50007DF012FDA84872F00BF99E4AA549A6487D
:108D60007DF00AFDA5489B4AA54904607DF004FDFD
:108D7000A448984AA24904607DF0FEFCA24B2B61F6
:108D8000A24BEB602846A24B6B6106F58E7340F850
:108D9000183B6D6045F2C072214682F0C7FF362253
:108DA00021469C4882F0C2FF28469B4D894A9B4938
:108DB0007DF0E2FC28464FF4D072214600F8044BC7
:108DC00082F0B4FF4FF4D072214605F5D27082F0E4
:108DD000ADFF93487F4A93498460C0E900007DF06D
:108DE000CBFC9148914D7B4A9149C463C0E9014451
:108DF000C0E90344C0E90544C0E90744C0E90944A7
:108E0000C0E90B44C0E90D447DF0B6FC894B2B61F1
:108E10002846894BEB6006F59A7340F8183B6D6065
:108E20006C614FF4FB52214682F080FF10222146F4
:108E3000824882F07BFF674A81492846814D7DF058
:108E40009BFC814B2B612846804BEB6006F5A6739B
:108E500040F8183B6D606C612022214682F066FF6D
:108E60005C4A7B49AC6328467A4D7DF085FC7A4BA1
:108E70002B612846794BEB6006F5B27340F8183B3E
:108E80006D606C614FF4F062214682F04FFF514AF1
:108E90007349C5F8984728467DF06EFC714810224A
:108EA000214620F8024B82F041FF6F49494A6F4842
:108EB0007DF062FC5C2077F0D7FD054606F03DFAB8
:108EC0002B466B4A43F8382BC5E90E3306F5BE73C3
:108ED0006B63684B2C64C5E912344FF400734FF098
:108EE0000208A5F85830644B6D6485F850806C65B5
:108EF00085F85A806F62CC201D6077F0B5FD05467D
:108F000006F01BFA2B465D4A43F8382BC5E90E33B1
:108F100006F5C8736B635A4B2C6421467422C5E96D
:108F200012346D642C6505F1540082F0FFFE554B40
:108F3000C5F8C840C5F8248058201D6077F094FD1E
:108F4000054606F0FAF92B464F4A43F8382BC5E997
:108F50000E334E4B2C64C5E9123403236B6206F5C5
:108F6000D2764B4B6E636D642C65A5F8544085F842
:108F700056406C201D6077F077FD054606F0DDF960
:108F80002B46444A43F8382BC5E90E33424B6B63FA
:108F9000424B434E434A444831782C64C5E912346D
:108FA00005F15C03C5E9153404236B623F4B6D6426
:108FB0001D60338813803E4A2C6513803D4A85F836
:108FC0005C4013803C4A846013803C4A138077E005
:108FD0000C28012000400020CD030800791E0C0061
:108FE000891E0C00CF0308005C810020E0130120E3
:108FF0000098002063AF0900E41301208C100120C9
:10900000F9C806009813012041640200356502008A
:109010000A000B00D8EF0020B89400206D01040076
:10902000A011012061F40700408E0020BC5F0020E9
:109030000DAC0300756402002F650200347F002030
:10904000F1860300D85700206B64020031650200EE
:10905000C7860300185800206164020033650200CF
:1090600099860300C05700200B5109005437012096
:10907000943B0B0077EE020040370120A4AC0B00BC
:1090800089EA040088370120808C0B004124040009
:109090008C370120F0B20C006CB30C00895609002B
:1090A000973A012070370120000D012094370120EC
:1090B00073370120643701206637012068370120AB
:1090C000504B727859709A701C704F4A4F49C0E9E2
:1090D00000447DF051FB4E484B4A4E4984607DF080
:1090E0004BFB4D48484A4D4984607DF045FB4C4858
:1090F000454A4C498460C0E900447DF03DFB4A4844
:10910000414A4A498460C0E900447DF035FB484843
:109110003D4A46498460C0E900447DF02DFB454846
:10912000394A45498460C0E900447DF025FB434B42
:109130003025013D1C7303F10E03FAD14048324A39
:1091400038498560C0E900557DF016FB3D482E4A40
:109150003D49057200F10803C0E900357DF00CFBC4
:109160003A483B4C284A3B498560C0E900557DF0B0
:1091700003FB012714222946C4E90055A56004F128
:109180000C0082F0D3FD204A334934482565C4E9F8
:109190000855C4E90A55C4E90C55C4E90E55C4E99B
:1091A0001055C4E9125584F854707DF0E5FA2C4846
:1091B000154A2C4905607DF0DFFA2B4B2B481D70BA
:1091C0005D709D703570757021F06AFD0E4A2849FA
:1091D00026487DF0D1FA274821F062FD0A4A244949
:1091E00024487DF0C9FA03222946384675F0B2FFBB
:1091F000214B1860002847D1204B214A21480C21DF
:1092000056F0F2F976370120004000205166020046
:10921000EC520020A9660200B4550020A9660200A5
:10922000E411012005AE0900F0110120B124040071
:10923000CC110120D8110120B1240400CC37012029
:109240006C3A0120783A01201F700A00EC5500208A
:1092500004560020DB7B0200CD7D0200980E012029
:10926000903A0120F9C80600943A012030510020BC
:109270008DFA020004520020D452002018000B0086
:109280008CAC0B0022000B009F4CA04AA049A14FC0
:1092900018467DF071FAA560C4E9004404F10C00A1
:1092A0000BF0C4FC994A9C4920467DF065FA9B4B23
:1092B0009B4A9D60C3E900259A4ADA609A4B9B4A13
:1092C0009D60C3E900259A4ADA609A499A4B9B4807
:1092D0009B4CC3E90252C3E900159A4B9A4A1A60A3
:1092E0009A4A5A609A4A9A609A4ADA609A4B9B4A1A
:1092F0009D60C3E900259A4ADA609A4B9A4A9D60BC
:10930000C3E90025994ADA60994B9A4A9A49C3E918
:1093100000259A4A9A609A4ADA609A4B9A4A9D6066
:10932000C3E90025994ADA60994A11609949856034
:10933000C2E901159849D160984A99491160994943
:109340005160994991609949D160C0E900356F4AEF
:109350009749C0F8EC5080F8F0507DF00DFA954830
:10936000954B03610523037104F14C0300264FF074
:109370004008036204F15803C0E90935634A8F4984
:1093800005730575856105778560046080F82D801B
:10939000456386637DF0F0F989488A4B0361222397
:1093A000037104F16403036004F1B003036204F188
:1093B000BC03436242F21073544A83490573057536
:1093C00085610577856080F82880C762C663A0F84C
:1093D000403080F842804764066386634663856454
:1093E0007DF0CAF979487A4B03610423037104F1D3
:1093F000C803036004F58A73036204F59073434A5B
:1094000074490573057585610577856043627DF054
:10941000B3F97148714B03610E23037104F5967320
:10942000036004F5BC73036204F5C2734362422314
:1094300080F834306A4B354A6A4905730575856191
:109440000577856087638362C3620363C5637DF0CC
:1094500093F96548654B03611C23037104F5C873D8
:10946000036004F5EC73624E284A62490573C0E953
:10947000083505758561057785607DF07DF95E4964
:1094800002A804F021FF304604F03EFE06F130034E
:10949000C6E90A3502AA0EA8584986F8305004F0E9
:1094A0005DFE57490EA87DF0B3FF014608A87DF088
:1094B0009CFD08A906F128007DF0B7FD08A87DF005
:1094C000A5FC0EA87DF0A2FC04F0A4FE02A87DF08D
:1094D0009DFC0E4A4B4930467DF04EF94A4B83F8CD
:1094E000E45083F8E850494B4FF47A729A6004F5DF
:1094F000F2721A6004F503744FF47F425D601C61E0
:109500009A8214B0BDE8F08174560020004000201B
:10951000B1AF0900A0400120E34C0300E03B012073
:10952000BDBE09004E000B00F03B0120A1BE0900AA
:1095300057000B0083BE0900D03B0120003C0120F6
:1095400060030B00B03B0120B5C309005165020068
:109550004F6502002C940B00803B012091C3090051
:109560005B000B00903B012051C409005E000B0022
:10957000C03B01206BC3090029C409005D650200DE
:1095800063000B00A03B0120BD6202006A000B00DB
:10959000703B01206FBE09006F000B00603B012093
:1095A000F5C309005DBE09005965020072000B0099
:1095B00059660300FC4F002078000B0075F3020091
:1095C000385000207F000B00B3F3020084500020CD
:1095D00086000B00B1F30200BC5000208D000B0090
:1095E000CDCCCC3DAFF302000051002095000B0024
:1095F000AC4F0020ADF30200B65D0B009E000B00E7
:10960000A9000B0019E702001C4E0020F0490020C1
:1096100007B503688DF807105B6801220DF107019B
:10962000984703B05DF804FBA0F1100000F032B9D8
:10963000407DFF2801D073F02BBA704710B5437DF1
:10964000FF2B0CD0074A4FF4567000FB032001F0AB
:1096500061FB044608B977F055FE204610BD002096
:10966000FCE700BF583D01202DE9F74F437DFF2B5C
:1096700006460F4614462FD015464FF4567A4FF63D
:10968000FE7B15B3707D73F051FAF0B1737D134A10
:1096900001930AFB03294FF6FF7209F124095D4586
:1096A00098BF2A4692B23946484601F097FA80465A
:1096B000484601F02FFB3F28019B02D9184673F062
:1096C000E7F9B5EB0805474403D1601B03B0BDE8DB
:1096D000F08F77F017FED4E70020F7E7483D012030
:1096E00008B5437DFF2B07D0044A4FF4567000FBAA
:1096F000032001F0FDFA08BD0020FCE76C3D0120CD
:1097000073B5437DFF2B14D04FF456745C430A4E5F
:1097100004F1100001220DF10701304401F08EF92F
:109720000546301973F018FA1DB19DF8070002B014
:1097300070BD4FF0FF30FAE7483D012073B5457D1D
:10974000FF2D03D14FF0FF3002B070BD254E4FF416
:10975000567303FB0563186A18B14FF0FF3175F0BB
:109760008BFE4FF4567202FB0562118B538B908A6D
:1097700089B29BB2994236BFC3EB4002CA1A521853
:1097800094B2E4B1A04209D281424FF456722CBF88
:109790000B1A0B1802FB05629BB2538398421ED929
:1097A0004FF4567101FB05610DF10700CA8A096982
:1097B000C2F30E0202FB031182F090FA01244FF46F
:1097C000567303FB0565286A20B100231A46194623
:1097D00075F0E6FC002CB5D09DF80700B4E71B1A25
:1097E0009BB2DBE7483D012010B5194B5A7DFF2A9B
:1097F0002CD11A7E52BB174C5A750121197694F858
:1098000050110B2908D84A1C84F8502101F1480254
:10981000114844F822000A461A75B4F81821B4F821
:109820001A3161690A489B1A9BB20A4494F81C11C8
:1098300000F030F850B1B4F818311844636980B2C0
:10984000A4F81801588094F81C211A7110BD00BFAB
:10985000F04900200C4A00203C340B0010B5407D3C
:10986000FF2807D073F062F9044608B977F04AFD83
:10987000204610BD0024FBE7034B9B68B3F5966FB1
:1098800001D173F0DDBA7047483D012009B900B934
:10989000F2E770472DE9F047074692B09846154623
:1098A000002A00F090804B4B93F81C6193F81D1137
:1098B00093F81EA1B21C83F81C214C1C8A1C83F84F
:1098C0001D2164F07F040AF1010241F08009E4B235
:1098D00083F81E214222002101A882F027FA002DE0
:1098E0006DD0B8F1410F73D940F20220ADF80800F5
:1098F00040F20940ADF80C0040F20120ADF8100034
:1099000024208DF8160034480690731C0120DBB229
:109910008DF806608DF80E608DF81C008DF82660BD
:109920002E48397D8DF81E30032640F60832089007
:109930008DF8273040F224608DF82B608DF831309F
:1099400008260A230427ADF804208DF814100222FB
:109950000521ADF824008DF82C6040F207508DF8F9
:1099600034304FF4116640238DF807208DF8122013
:109970008DF81510ADF828008DF83320ADF83800BB
:109980008DF83B208DF81F708DF82A90ADF82E6071
:109990008DF830708DF83AA08DF83C3007238DF8A3
:1099A0003F308DF8401044F2020342220DEB0701D4
:1099B00028468DF84140ADF8423082F08FF94220C0
:1099C00012B0BDE8F087924614469146164681E7EC
:1099D0000020F5E70C4A002020010524240202059E
:1099E0007FB5204B204A03F11006144618685968C9
:1099F000154603C50833B3422A46F7D11B4A1B88D4
:109A0000106851682B8001AB03C3127A1A7004AA44
:109A100012E90700164B03C3194603F5887001F8D5
:109A20000829144AC4F818214FF48072A4F81C21A4
:109A30000122616184F81E210021202282F076F942
:109A400040F20943C4F820310B4BC4F824310B4BCE
:109A5000C4F828310023C4F82C31042384F8503191
:109A600004B070BD57340B000C4A002069340B0061
:109A7000244A0020090000014B340B0068F90C0057
:109A8000F0B50546002004462B5D2E19002B68D04A
:109A900003F14002D2B2012A3DD9F42B3BD81A0679
:109AA0001BD40122A3F55846B6F5006F33D3B3F5A6
:109AB000803F14444FD31E2853DCA3F5803342006B
:109AC0009E0A0A44C3F30903A6F52056A3F51053D2
:109AD00021F8106002305380D6E703F0E002C02A7C
:109AE0001BD103F01F03022206F1010C16441CF8DF
:109AF000017B07F0C00EBEF1800F0CD107F03F07CD
:109B0000664547EA8313F2D1022A16D1A3F18006F3
:109B1000B6F5F06FC6D30134B6E703F0F002E02AE1
:109B200003D103F00F030322DEE703F0F802F02A6B
:109B3000F1D103F007030422D6E7032A04D1A3F5E9
:109B40000066B6F5784FE5E7A3F58032B2F5801FE1
:109B5000E1D20422A6E7202803D021F810300130FA
:109B600092E7F0BD0B6802490B610121184700BF65
:109B7000F43C01202DE9F041174C184F8046002598
:109B800018262279EBB29A4212D2382200211448C8
:109B900082F0CCF81022FF2104F1090082F0C6F80F
:109BA00004F119001222BDE8F041FF2182F0BEB895
:109BB0000AD9226806FB03234BB90A4B1B68DB0753
:109BC00000D500BEBDE8F0819B1A06FB03735B68FD
:109BD000404698470135D4E7A04B002080340B0065
:109BE000A54B0020F0ED00E02DE9FF414378474C04
:109BF000023B0546042B12D8DFE803F003291B22A1
:109C00006F0063796FF300036371637900226FF370
:109C100041036371A271637962F382036371206C03
:109C200000295FD10B464FF0FF32294675F0B8FA94
:109C30002EE06379D8072BD5637943F00403EDE771
:109C40006379DA0724D563796FF38203E6E76379F2
:109C50005B0715D563796FF3820363710278206C1B
:109C60000023CDE901338DF80420052203938DF8FC
:109C7000052081B90B464FF0FF3201A975F090FA2B
:109C8000DFF89080002618272279F3B2934214D986
:109C900004B0BDE8F0816A4601A9009375F019FB94
:109CA000009B002BECD01A4B4FF080525A6040BF03
:109CB000BFF34F8FBFF36F8FE2E70AD2226807FB33
:109CC000032323B15B6913B169682878984701368B
:109CD000DAE79B1A07FB0383F4E7237A0133DBB24D
:109CE00023729CE7002301AA2946019375F0F1FA3B
:109CF000019B002BCCD0064B4FF080525A6040BFE6
:109D0000BFF34F8FBFF36F8FC2E700BFA04B0020A0
:109D100000ED00E080340B002DE9FF47474D07467A
:109D200000F07F0005EB400606EBD7162536B47928
:109D300014F001044FEAD71E4FEA400306D0FEF7A5
:109D4000E1FC0446204604B0BDE8F08796F806C062
:109D5000DFF800814CF0010C86F806C003EB0E0C16
:109D60004FEA0C1908EB0C1C46469CF80BA0BAF104
:109D7000000F17D0324A1168C90700D500BE2B4426
:109D8000734493F82B106FF3000183F82B1093F8B2
:109D90002B106FF3820183F82B101368DB07D1D5EA
:109DA00000BECFE748F80910ACF80420ACF8064034
:109DB00008BB02BB234BD3F88034C3F3C0139E45CA
:109DC00019D0214800F0D0FF204B59680394C1F30B
:109DD000080100394FF4E06318BF012101A8CDE963
:109DE0000144ADF804308DF808708DF80940FFF794
:109DF000FBFE0124A6E70125BEF1000F1AD106EBF8
:109E00004012D57218B9124800F0AEFFF1E7BFF367
:109E10006F8FBFF34F8F937A03F0FF0443B1D37A70
:109E200003F0FF05002B8DD082F80AE001F004F961
:109E30002C4687E701F08AF9FAE700BFA04B002023
:109E4000F0ED00E0007002405070024000ED00E0D4
:109E50004C700240F84C0020F8B5194A00F07F031E
:109E600002EB430303EBD01000F1250490F82B50D4
:109E700015F0010521D190F82B305907C3F3800765
:109E800017D4566C4FF0FF31304675F0F5FAA579CE
:109E900015F001050FD1A3795B0704D4A37943F032
:109EA0000403A371012500231A461946304675F0B4
:109EB00077F92846F8BD3D46F5E70025F9E700BFEC
:109EC000A04B002070B4827802F07F03082B07D9E2
:109ED000524B1B68DB0700D500BE002070BC7047EA
:109EE0004F49C478CD79818804F00304022CC1F372
:109EF0000A010BD0032C45D0012C11D1022D40F2C8
:109F0000FF3408BF4FF48064A1420DE0022D0AD156
:109F1000B1F5007F09D0414B1B68DA0700D500BEC0
:109F200070BCFEF7EFBB4029F5D83E4E5C0004EB59
:109F3000D21406EB0414D5092181C17801F0030184
:109F400001292FD00120384900FA03F405BB03F1A1
:109F50000C06B040C1F80403D1F8140503F594735E
:109F60000443C1F8144541F823502F4BC3F818257A
:109F700042F48072C3F80C25BFF36F8FBFF34F8F8D
:109F80000120ABE7022D0CBF4FF480644024BBE7F7
:109F900002339840C1F80403D1F810351C43C1F8CE
:109FA0001045E2E7082B93D11F4BDDB9B6F8182115
:109FB00012B18022C3F81C250022C3F85021D3F827
:109FC000002312F4001208BFC3F85421164B4FF4BB
:109FD0004012C3F80423D3F8142542F48072C3F866
:109FE0001425C9E70022C3F82C21B6F8082112B1C4
:109FF0008022C3F81C250C4BD3F8002312F4001266
:10A0000008BFC3F85421094AC3F80423D3F8102524
:10A0100042F48072C3F81025AEE700BFF0ED00E017
:10A02000A04B0020F84C00200070024000082000E7
:10A030002DE9F04FB44B1B78FF2B93B0834600F013
:10A040001D844FF47A72002380024FEA9B5180F006
:10A050007DFF012838BF01200390AC4CBBF1FF3FCE
:10A06000206C26461BD0039BBBF1000F14BF1A4681
:10A07000002207A975F086F9002800F0FF839DF8FB
:10A080001D30013B072B00F2A683DFE813F00A0026
:10A090001C00A403040412042B0081031E045A466E
:10A0A000E7E79DF81C00FFF765FD994814220021A1
:10A0B00081F03CFE9DF82030E371206C75F072FA5F
:10A0C0000028CAD1DAE39DF81C00FFF753FD904841
:10A0D0001422002181F02AFE8E4B002BEDD0AFF32D
:10A0E0000080EAE7237A013BDBB22372227A02F096
:10A0F000FF03002AE1D16279854F9DF81C503B6136
:10A1000042F00102627194F82B2063F3000284F89C
:10A110002B2094F82B2063F3820284F82B2094F8F0
:10A120002C2063F3000284F82C2094F82C2063F395
:10A1300082029DF8203084F82C2003F06002602A0F
:10A1400006D1754B1B68DD0740F1C88200BEC5E231
:10A15000402A0CD1714B002B00F0C08208AA0121CB
:10A1600028463B61AFF300800028A6D1B6E203F099
:10A170001F03012B00F03882022B00F07782002BA6
:10A18000DFD1202A1ED19DF824300F2B00F2A682A9
:10A190001E442379717A99420CD2236801EB410164
:10A1A00013EBC10100F09A8208AA0C312846FFF790
:10A1B000D9FCD9E740F09282594AC91A182303FB07
:10A1C0000121F1E7002ABCD19DF82130092BB8D834
:10A1D00001A252F823F000BFD3A50200C1A50200DE
:10A1E00043A10200ADA5020043A1020001A20200AA
:10A1F00059A4020043A1020035A2020049A20200B4
:10A20000DDE90801474BC7E90001D3F80014D3F892
:10A21000000400220143C7E90222C3F80014C3F876
:10A2200058214FF48002C3F80423637943F00203FA
:10A23000637142E7A3798DF8383001230EAA08A98B
:10A24000284672F04DFB38E79DF822300193019AC1
:10A25000A3799A4200F08A80A379002B42D0324B36
:10A260008022C3F88420BFF34F8FBFF36F8F012785
:10A27000DFF8B080DFF8C0A0B94607F10C03BA1CC4
:10A2800009FA02F209FA03F31343C8F80833BB00D2
:10A2900003F1804303F51C33002159600AEB47109A
:10A2A00099622022013781F041FD082F4FF0000113
:10A2B000E3D11E4BC8F808332022C8F81C151C48EF
:10A2C000C8F82410C8F8481081F030FDC8F814957B
:10A2D000C8F81095144B80225A60E7792846FFF79A
:10A2E00049FCE771019B002B00F0B080114B5A69CB
:10A2F00012B15378022B21D0074B1B68D9077FF589
:10A3000020AF00BE1DE700BF04400020A04B00208E
:10A31000F43C012000000000F0ED00E0000000002F
:10A3200080340B000070024000E100E000083000C3
:10A33000F84D00200C4A0020F84C0020D379C3F3DC
:10A340008011C3F340131B0143EA4113617921F0EB
:10A3500030010B4363715388D31802F10901029352
:10A36000029B8B4209D8B54B002B6CD1019BA3718A
:10A3700008A9284672F070FA9FE64B780B2B03BFB2
:10A380000B7891F80390C9184FF001094B78042B12
:10A39000B2D1029B5A1A92B24FF0000A18233779B1
:10A3A0005FFA8AF84745A7D329D9376803FB0877AE
:10A3B000002FA1D0BB682846CDE904129847082891
:10A3C000DDE904124FF018033AD9824238D3B9F1CB
:10A3D000010F05D1BB689A4A934208BF4FF00209AA
:10A3E0000022D3B2994510D8964A0844884218D81A
:10A3F000944B1B794345FFF47FAF0146B0E7924889
:10A40000A8EB070703FB0707D4E78F783B4456FA0E
:10A4100083F301325F7AFF2F7FF46EAF83F80980F8
:10A42000DFE74B78052B08D18F7807F07F0302EB2D
:10A43000430303EBD71383F819800B781944D5E74E
:10A440000AF1010AABE7AFF300808FE77F4B002BE7
:10A450008CD0AFF3008089E7BDF82200030A5A1EB2
:10A46000C0B20E2A00F23A81DFE812F00F001E009F
:10A470002E003801380194001E00380138013801DF
:10A4800038013801380138011600714A122308A931
:10A49000284672F025FA67E66E4B002B00F01E810D
:10A4A000AFF30080024603E0022B06D1684B5A69E5
:10A4B000002A3FF446AE5388E9E7674B002B00F0D3
:10A4C0000D81AFF30080EDE7614E60B1032819D034
:10A4D00096F85031834240F20181483006F5AA7166
:10A4E00056F8200053E0D6F82031A6F85431012068
:10A4F0000130430043F44072A6F8522103F0FE03FA
:10A50000564AC4E7D6F82C71002F3DD10AA872F044
:10A5100099FC0DF1280C0346B6463A46D1B28B425F
:10A520000EF1040E2DD94E4F0DF1380907F1100A26
:10A5300038687968C846A8E8030008375745C14617
:10A54000F6D11CF8018B464F08F00F0112A8014408
:10A550000DF1380A11F8101CAEF8521179683868FC
:10A56000D146A9E803003F4908378F42CA46F5D1D2
:10A5700012A901EB1818013218F8101CAEF850118E
:10A58000CCE75800C0B2B3E706F5AA713846FFF72A
:10A5900077FAF7E7344B002B00F0A080AFF3008090
:10A5A0000246002800F09A80037870E7BDF8223058
:10A5B000012B40F09380637943F008036371D7E681
:10A5C000BDF82230012B40F0898063796FF3C3031B
:10A5D000F4E76379C3F340129B0803F002031343CB
:10A5E000ADF83830022329E69DF824300F2B75D8BA
:10A5F0001E442379717A99421DD2236801EB4101EF
:10A6000013EBC1016AD008AA0C312846FFF7AAFA59
:10A6100000287FF452AD9DF8203013F060035DD127
:10A620009DF82120A2F10A01012957D80A2A3B618D
:10A630007FF49EAEFFE551D10349E4E7000000003E
:10A64000A5CC0900A04B002080340B0000000000C6
:10A650000C4A002000000000000000005E4B0020BB
:10A66000D4040D00E4040D00000000009DF8240057
:10A6700000F07F0EBEF1080F3FF663AD06EB4E0112
:10A6800001EBD0114FEAD01C91F81980217988454F
:10A690004FEA4E0315D2216808EB480801EBC808C1
:10A6A000CAB99DF8212002F0FD0101291DD0002A20
:10A6B0007FF447AD1E44664496F82B30C3F3400345
:10A6C0008EE740F00A81DFF82C82002AE9D008AA40
:10A6D00008F10C016AE5B8F1000FF8D1002000F094
:10A6E0000FFD802000F00CFDE7E4BDF8221061BBF7
:10A6F000012A3CD1F218624425329279920724D57E
:10A7000010F0770F13D0774A40F48071C2F80C052F
:10A71000C2F80C15C2F81805BCF1000F03D10EF5F4
:10A72000947E42F82EC0BFF36F8FBFF34F8F1E444D
:10A73000664496F82B306FF3410386F82B3096F879
:10A740002B306FF3000386F82B30B8F1000F3FF485
:10A75000B4AC08AA08F10C012846FFF703FA00235D
:10A760003B6194F82C30DE073FF5A7AC00E61E44B1
:10A7700066442536B3799B07E7D400F0C1FCB37972
:10A7800043F00203B371B37943F00103B371DCE723
:10A790009DF8201001F07F0706EB470606EBD11667
:10A7A000CA0996F82B006FF3000086F82B0096F884
:10A7B0002B006FF3820086F82B00002F4FD14A4DFB
:10A7C0009DF81C602B78DDF82480B2EBD31F12D0EB
:10A7D000B8F1000F06D0454B1B68DB077FF56DAC69
:10A7E00000BE6AE42B69002B3FF467AC2A460321C4
:10A7F0003046984761E495F90030002B07DBA868E4
:10A8000000283FF45AAC3A49424681F067FAAA68F8
:10A81000EB8942444344AA60EA889BB29A42EB81A6
:10A8200002D0B8F13F0F16D82B696BB995F90030FB
:10A830000022002B1146B4BF38468020FFF76CFA87
:10A8400000287FF43AACC6E7274A022130469847F1
:10A850000028EBD143E7304672F016F8F0E7737E3C
:10A86000227993420DD2226803EB430312EBC30318
:10A8700009D11E4B1B68D80700D500BE13B0BDE838
:10A88000F08FF6D11B4B1D699DF82120099B9DF887
:10A890001C00A84711E46379D9077FF50EAC164B6D
:10A8A000002B3FF40AAC6079C0F3C000AFF3008026
:10A8B00003E46379DA077FF500AC104B002B3FF41B
:10A8C000FCABAFF30080FFF7F8BB089B002B3FF415
:10A8D000F4AB09989847FFF7F0BB002A7FF4FEAE6F
:10A8E0009046DEE600700240F43C0120F0ED00E00E
:10A8F000083D012080340B00000000000000000033
:10A900001FB5CDE902011149002308240193086C09
:10A910008DF805403AB9134601A94FF0FF3274F0A3
:10A920003FFC04B010BD6A4601A9009374F0D1FC4D
:10A93000009B002BF5D0064B4FF080525A6040BF71
:10A94000BFF34F8FBFF36F8FEBE700BFA04B00202B
:10A9500000ED00E02DE9F743DFF8D48098F80030EF
:10A96000FF2B0646474647D1DFF8C8903822002122
:10A9700009F1050081F0DAF909F14801012074F0CC
:10A9800093FC4D46C9F8440040B9264B1B6813F0B0
:10A99000010F44D1002003B0BDE8F08300230093F1
:10A9A000D8F80820B8F80610B8F8040008F1100329
:10A9B00074F0BAFBD8F80C10044674F00BFEC9F81A
:10A9C00040402CB9174B1B68DB07E3D500BEE1E71D
:10A9D000154B23B1281DAFF30080C9F80000DFF844
:10A9E000589000244FF018082879E3B2984205D215
:10A9F0003E700E4B80225A600120CCE708D92868AF
:10AA000008FB030038B9074A126812F0010FC0E7CB
:10AA10001B1A08FB0390036898470134E4E700BE63
:10AA2000B9E700BFF0ED00E00000000000E100E049
:10AA300004400020A04B002080340B002DE9F0479B
:10AA4000064600698846914618B14FF0FF3174F010
:10AA500013FD33897489B7889BB2A4B2A34236BF71
:10AA6000C4EB47051D1BED18ADB2F5B1AF4206D2E0
:10AA7000BB422CBFDC1BDC19A4B274813D464D45A2
:10AA800028BF4D46A74229D9F2883168A7EB0409AF
:10AA90001FFA89F9C2F30E0A4D4552460AFB04110A
:10AAA0001FD86A43404681F019F97389B28899B278
:10AAB00015FA83F39BB299424FEA420201D89342BE
:10AAC00001DB9B1A9BB23069738120B100231A46C7
:10AAD000194674F065FB2846BDE8F087E41BA4B274
:10AAE000D0E719FB0AF91FFA89F94A46404681F076
:10AAF000F5F8EA1B224412FB0AF2316892B208EB25
:10AB00000900D0E7F8B50446C0680F4616461D4652
:10AB100018B14FF0FF3174F0AFFC206918B14FF05D
:10AB2000FF3174F0A9FCED03E0682760002345F0D5
:10AB300001056381A680E580238118B11A46194674
:10AB400074F02EFB206920B100231A46194674F0D8
:10AB500027FB0120F8BD38B50446C0680D4618B182
:10AB60004FF0FF3174F088FC206918B14FF0FF31CD
:10AB700074F082FCE379E06865F3C713E37120B1F8
:10AB800000231A46194674F00BFB206920B10023FC
:10AB90001A46194674F004FB012038BD10B504466E
:10ABA000C06818B14FF0FF3174F066FC206918B12D
:10ABB0004FF0FF3174F060FCE06800236381238173
:10ABC00018B11A46194674F0EBFA206920B1002337
:10ABD0001A46194674F0E4FA012010BD2DE9F84F29
:10ABE00007468846164642B3C06818B14FF0FF3199
:10ABF00074F042FCFA793D897B89B7F80490D20958
:10AC0000ADB29BB21CD19D4239BFC3EB490464195C
:10AC1000EB1A9CB238BFA4B2A14586BFA9EB0404CD
:10AC2000A4B20024A64228BF264656BBF86820B12D
:10AC300000231A46194674F0B3FA3046BDE8F88F7F
:10AC4000F9884E45C1F30E0106D3A6EB090601FBB8
:10AC500006881D464E46E8E79D424FEA490136BF49
:10AC6000CA1AEA1A521992B232448A4209DB09EB33
:10AC70000305AD1BADB2AB4201D8A94201DC6D1A90
:10AC8000ADB22C46A1451DD9FA883868A9EB040A53
:10AC90001FFA8AFAC2F30E0BB2455A460BFB0400A8
:10ACA00014D37243414681F019F87319BA889BB2E4
:10ACB000AB424FEA420201D3934201DB9B1A9BB2A3
:10ACC0003B81B3E7A4EB0904A4B2DBE71AFB0BFA60
:10ACD0001FFA8AFA5246414681F000F8A6EB0903B2
:10ACE000234413FB0BF2386892B208EB0A01DAE74F
:10ACF0008288038940899BB280B2834236BFC0EB11
:10AD00004200181AC01880B2824286BF101A80B260
:10AD1000002070470389428981889BB292B2934296
:10AD200036BFC2EB41029B1A9B1898B2884228BFDB
:10AD30000846704701230360BFF36F8FBFF34F8F47
:10AD4000074B984202D0043B984207D1BFF35B8F78
:10AD5000044B002283F82021BFF35B8F704700BFB4
:10AD600050700240F84C002010B40D4BBFF35B8FC5
:10AD700001464FF00104D3E84F2FC3E84C4FBCF11C
:10AD8000000FF8D1BFF35B8F12F0FF0F05D005481D
:10AD90005DF8044B0122FFF7B3BD5DF8044BC9E732
:10ADA000184E002069AD020043F2040307B51A688B
:10ADB000094B9A424FF000000AD18DF807000DF1BF
:10ADC0000700FBF763FE9DF80700003818BF01205D
:10ADD00003B05DF804FB00BFDBE5B15107B5FFF739
:10ADE000E3FF58B1002301A80193FDF776FC019819
:10ADF000003818BF012003B05DF804FB4FF080431A
:10AE0000D3F80C24D3F80C0410F4803018BF02F0EF
:10AE10000100F0E701281FB5044600F0B9800228C0
:10AE200053D0002842D1774BD3F80025002A3DD1DA
:10AE30004FF48002C3F808234FF40062C3F80024E3
:10AE4000BFF36F8FBFF34F8F6F4B1B68082B10D171
:10AE50006E4B1B68032B0CD86D4AD35C4BB16D4B0A
:10AE60006D4A1868032118BB49F2753018601160EB
:10AE70001860FDF738FC48B1664B684A1868C02175
:10AE8000C0B949F275301860116018605D4B01243B
:10AE9000C3F80045BFF36F8FBFF34F8FFFF79EFFDF
:10AEA00020B9FFF781FF38B1FDF71BFC04B010BDDE
:10AEB0001160DEE71160E9E7594B18601B680193E8
:10AEC000019B4FF080431C60F0E74E4CD4F80435F2
:10AED0001BB1FFF783FF0028E8D1D4F800341B052D
:10AEE000FBD54FF40063C4F80034BFF36F8FBFF39A
:10AEF0004F8FFDF7F8FB48B1464B484A18680028C9
:10AF000040D149F275311960106019603E4B1B68E1
:10AF1000082B0FD13D4B1B68032B0BD83C4AD35C4D
:10AF200043B13C4B3C4A186878BB49F27531196013
:10AF300010601960FDF7D7FB48B13A4B40F2E3725D
:10AF40001A6040225A60BFF36F8FBFF34F8F2D4CB2
:10AF5000354880220121C4F81C25C4F80413334964
:10AF6000C1F884210078FF2800D04A60FFF736FF3F
:10AF70000028FBD00123C4F80435BFF36F8FBFF363
:10AF80004F8F93E700231360C0E700231360D1E7DE
:10AF90001C4BD3F80025002A88D00022C3F80425D2
:10AFA000BFF36F8FBFF34F8F20498020C1F884001B
:10AFB000BFF34F8FBFF36F8FD3F80013C3F808139D
:10AFC000C3F80025BFF36F8FBFF34F8FFFF7ECFE81
:10AFD000A0B1FDF784FB164B5968C1F308010023AB
:10AFE0000039CDE90133039318BF01214FF40073F9
:10AFF00001A8ADF80430FEF7F7FD57E70D4B1C60D4
:10B00000E9E700BF00700240300100103401001079
:10B0100098340B0000EC064014ED064014EC06409A
:10B0200000010040007802400440002000E100E000
:10B0300000ED00E004000040F0B42B4ABFF35B8F4A
:10B0400002F590734FF00104D3E84F1FC3E8454F5A
:10B05000002DF9D1BFF35B8F11F0FF0F14460BD019
:10B06000224B5A68C2F30802003A0146F0BC20485D
:10B0700018BF0122FFF744BC08281E4919D1D1F896
:10B08000C034D80308D5BFF35B8F002384F8203188
:10B09000BFF35B8FF0BC704792F80B010028F2D031
:10B0A000D2F800211448C1F8A027C1F8A437F0BC99
:10B0B00040E602EB401500F59473460151F8234039
:10B0C000EF88AB88DB1B9BB2A4B2A34228BF234608
:10B0D0009459142202FB0011C1F80047C1F804374B
:10B0E000064B03EB8000E2E7F84C002000ED00E0A7
:10B0F00049B10200007002404870024028700240CE
:10B1000010F07F0108B507D10D4B01225A65BFF33E
:10B110006F8FBFF34F8F08BD0829F8D0084B40F45C
:10B120008072C3F81825C309F1D1064A02EB411217
:10B13000907A0028EBD093720846FFF77DFFE6E790
:10B1400000700240F84C0020C0B275E70C4B03EBD6
:10B150004013D98A9A8A521A198B92B28A4228BF0E
:10B160000A4619691423434303F1804303F51C3352
:10B17000C3F80016C3F80426024B03EB8000F3E586
:10B18000F84C0020047002402DE9F04FC34BC44A34
:10B19000D3F80013002385B01C4601201D4621FA78
:10B1A00003F6F6070BD552F8236046B100FA03F612
:10B1B000344342F82350BFF36F8FBFF34F8F0133F7
:10B1C000192BECD1E7073BD5B44B0122C3F814256A
:10B1D000C3F8102500221546930003F1804303F5C0
:10B1E0001C330132082A5D609D62F5D1AB4B5D6274
:10B1F0009D64C3F85851D3F80024D3F800140A43CF
:10B20000C3F80024D3F80023C3F80823A54AC3F8E1
:10B210000423A54B4FF492720021184680F086FD5E
:10B220004022028302814FF48073012101A8CDE9FD
:10B2300001550395ADF804308DF80850FEF7D4FCA5
:10B2400014F4006F984D08D0944BD3F8A8369BB2F5
:10B25000A5F81631012385F81C31A60204F48007F5
:10B2600036D58E4ED6F8143513F4807308D01FB13E
:10B27000D6F80034D80702D40820FFF7DDFE0123FA
:10B28000D6F81025D10540F15D8195F81C319BB1B0
:10B29000B5F8163100229BB2CDE9012285F81C21B8
:10B2A00003934FF4E0628823012101A8ADF8042044
:10B2B000ADF80830FEF798FC0023CDE90133039385
:10B2C00001214FF4407301A8ADF80430FEF78CFC67
:10B2D000002F37D0714BD3F8006440F20172324036
:10B2E000C3F80024F2050DD50121C3F82C15002365
:10B2F000CDE90133039301A84FF48063ADF8043026
:10B30000FEF772FC77050FD5644B0122C3F80825C0
:10B310009A65D3F8002312F4001208BFC3F8542131
:10B320004FF40012C3F80423B0050BD50023CDE978
:10B330000133039301214FF4A06301A8ADF8043059
:10B34000FEF752FC21023BD5544BD3F880E4D3F8EE
:10B350008424D3F88814D3F88C74D3F89064D3F889
:10B3600094045FFA81FCD3F89814D3F89C341EF04F
:10B370007F0F5FFA8EF8D2B2FFB2F6B2C0B2C9B296
:10B38000DBB201D1052A1BD04FF0000EADF806E06C
:10B390008DF80D004FF4C06E8DF80E1001A801213C
:10B3A000ADF804E08DF808808DF809208DF80AC00A
:10B3B0008DF80B708DF80C608DF80F30FEF714FCD3
:10B3C0003A4B23406BB1BFF35B8F95F82031BFF34D
:10B3D0005B8F002B40F0BE80354B1B68DA0700D531
:10B3E00000BEDFF8C480DFF8B490DFF8CCB0474689
:10B3F00000264FF0140A06F10C0324FA03F3DB07CE
:10B40000F1B224D50AFB06933A68D3F8083705EB66
:10B41000461C12FA83F23A60BCF806E098B2734414
:10B420009BB2082E4FEA4612ACF8063000F09A8024
:10B430003B89834240F09680BCF80630B8889BB2C6
:10B44000984240F28F8011B95846FFF78DFC0136C3
:10B45000092E07F12007CED1164B2340002B00F018
:10B4600089800E4BD3F86C74C3F86C74BFF36F8F84
:10B47000BFF34F8F14F4806408D0D3F88044D3F81E
:10B4800080341906C4F3C01440F18D804FF00009D8
:10B49000DFF808A000264FF0140B0FE00070024008
:10B4A000007102400514C001F84C0020FCFB1F0095
:10B4B000F0ED00E0000400014C70024027FA06F3B2
:10B4C000DA07F0B201D4D6B9CCB10BFB06A3D8F899
:10B4D0001020D3F8083652FA83F2C8F8102005EB92
:10B4E0004612D18A89B251FA83F39BB2D382D38AAE
:10B4F000B8F814109BB2994258D9FFF727FE0136CD
:10B50000082E08F12008D9D10024012604F11003E7
:10B5100027FA03F3DB07E0B203D47CB9B9F1000FDB
:10B520000CD005EB44116301CA7A002A53D0CA88B3
:10B53000898892B291424ED9FFF77EFD0134082CE2
:10B54000E4D117E0002B7FF4B7AE4FF40013C6F838
:10B550000833B1E60023BFF35B8F85F82031BFF3DA
:10B560005B8F3EE72A44D37A3BB91C4B1B68D80754
:10B5700000D500BE05B0BDE8F08FD388BB800023A6
:10B58000D372D2884FF4E060CDE9013392B2ADF8C6
:10B5900004008DF8081001A8012103928DF80930EC
:10B5A000FEF722FB53E74FF0010971E7D28A00232F
:10B5B0004FF4E06160F07F00CDE9013392B2ADF865
:10B5C00004108DF80800012101A803928DF80930BC
:10B5D000FEF70AFB93E72B449E72AFE7F0ED00E025
:10B5E00070B5134E96F8E84014B10124204670BDA2
:10B5F000012586F8E85078F0EBFA0028F6D196F8A5
:10B60000E430002BF1D14FF4BF5086F8E45073F0D2
:10B6100051FC05460028E9D00146304677F048FA4B
:10B620000446B4FA84F4284673F060FC6409DDE74C
:10B630001C4E002038B50A4C94F8E83073B1002550
:10B6400084F8E85078F0F8FA94F8E43033B184F8EC
:10B65000E4502046BDE8384077F08EBA38BD00BFD0
:10B660001C4E0020102828D8DFE800F01513270D05
:10B670000F090B1929171B1D1F2123251100114824
:10B68000704711487047114870471148704711487A
:10B69000704711487047114870471148704711486A
:10B6A000704711487047114870471148704711485A
:10B6B000704711487047114870471148704711484A
:10B6C000704700BF39350B00CE340B00E1340B005E
:10B6D000F5340B000A350B001F350B0030350B001D
:10B6E00000350B00B0340B00A7340B00D8340B002E
:10B6F0009C340B00C3340B00EC340B0016350B00EC
:10B7000028350B00B8340B0030B5054685B011481C
:10B710000C4672F0A2F8D8B1E88EC8B10223ADF899
:10B72000083001460DF10603002502AA20460393C6
:10B73000ADF80A50FBF73AF943F20143984204D1BD
:10B74000ADF80650BDF8060002E00028FAD080B23D
:10B7500005B030BDDC600120F0B5754B1B6883611E
:10B76000837A97B0044613B9043049F08EFA94F8FE
:10B770002E3013F0320208BF84F82F2094F82F00E7
:10B7800013F00C0208BF84F83020A2690507D779AE
:10B7900017D092F806C000F00F020CF00F018A4299
:10B7A0004FEA10154FEA1C1607D880EA0C00000774
:10B7B00001D1AE4201D335460A4642EA051284F869
:10B7C0002F2094F83010080714D001F00F0207F072
:10B7D0000F0595424FEA11104FEA171606D379402C
:10B7E000090701D1864201D330462A4642EA0012B7
:10B7F00084F8302013F030050AD002238DF80A3087
:10B800004C4B1B788DF8083094F82F308DF80930A8
:10B810001C2200210FA880F089FA94F82E308DF8B0
:10B820003C300023002D71D11A46ADF805309DF84B
:10B8300006301492012262F34203206A8DF806302A
:10B8400094F82F308DF8043058B103784BB1109034
:10B8500081F02BFD01AB80B2ADF84400ADF846009D
:10B86000139394F8263013B104F12603129304F1D4
:10B87000080394F83120059304F12F030693E38A1B
:10B8800012F0010F4FF0000008BF1A46CDE9070083
:10B8900018BF0246ADF82030E369ADF81C200993CB
:10B8A00005AA04F132030FA9FBF786F8054650BB41
:10B8B00094F8253063B3ADF80D009DF80E200123F8
:10B8C00063F342028DF812300223CDE90C008DF8AB
:10B8D0000E20ADF8303094F82F20ADF8343004ABA2
:10B8E0008DF80C200A9342F6081203ABADF8102035
:10B8F0000B930DF1020204F124030AA90E93FBF746
:10B9000059F828B10546284617B0F0BD02AA8CE7C1
:10B91000237D002BF7D1084B93F89424272A9FBF4F
:10B92000511C83F8941403EB8203C3F89844EAE7AC
:10B9300010140120DC350B00DC60012010B558210B
:10B94000044675F097F8204610BDF0B50B888E8838
:10B95000502B8BB004460D4600F0BB80512B26D1F6
:10B960008B79012B0CD1826C0AB390F844305B07C1
:10B9700001F108071DD4A36C3A462146304698478A
:10B98000AF79022F13D1AB7B042B2CD0062B6CD0BC
:10B99000012B0CD1E26C52B194F844301F0705F131
:10B9A000080513D4E36C2A462146304698470BB06D
:10B9B000F0BD0323CDE906600093082106AB3846AD
:10B9C000089775F03DFF0028D5D0D9E703230093F1
:10B9D0000E2106AB2846CDE90664089575F030FFC8
:10B9E0000028E4D1DEE7E36B3BB94FF4806073F0ED
:10B9F00061FA4FF48063E06323641022002106A8FB
:10BA000080F094F902236A8A8DF818302B8AB4F8F2
:10BA100040109818884208DD40F20913ADF81C3038
:10BA200006A93046FAF798FFC1E70020ADF81C00E0
:10BA30009DF81E00ADF8203040F001008DF81E008A
:10BA4000E06BADF8222005F114011844099180F053
:10BA500045F96A8A2B8A1344B4F842209BB2934278
:10BA600038BF1346A4F84230DAE7E36B002B9ED0D0
:10BA70001022002102A880F059F9002302A93046C3
:10BA80008DF80870ADF80C30FAF766FF226D52B1F0
:10BA900094F84430D8070DD4256DB4F84230E26BE9
:10BAA00021463046A847E06B73F020FA0023C4E932
:10BAB0000F337CE70423E06BB4F84210009306AB2D
:10BAC000CDE90664CDE9080175F0BAFE0028E3D09F
:10BAD000E9E7CA88438E9A420DD1026D5AB190F8B7
